{
  "_format": "hh-sol-artifact-1",
  "contractName": "SupplyChain",
  "sourceName": "contracts/SupplyChain.sol",
  "abi": [
    {
      "anonymous": false,
      "inputs": [
        {
          "indexed": true,
          "internalType": "address",
          "name": "entity",
          "type": "address"
        },
        {
          "indexed": false,
          "internalType": "string",
          "name": "id",
          "type": "string"
        }
      ],
      "name": "CertificationIssued",
      "type": "event"
    },
    {
      "anonymous": false,
      "inputs": [
        {
          "indexed": true,
          "internalType": "string",
          "name": "orderId",
          "type": "string"
        },
        {
          "indexed": false,
          "internalType": "string",
          "name": "status",
          "type": "string"
        }
      ],
      "name": "DeliveryUpdated",
      "type": "event"
    },
    {
      "anonymous": false,
      "inputs": [
        {
          "indexed": true,
          "internalType": "address",
          "name": "supplier",
          "type": "address"
        },
        {
          "indexed": false,
          "internalType": "string",
          "name": "serialNumber",
          "type": "string"
        }
      ],
      "name": "MaterialAdded",
      "type": "event"
    },
    {
      "anonymous": false,
      "inputs": [
        {
          "indexed": true,
          "internalType": "string",
          "name": "orderId",
          "type": "string"
        },
        {
          "indexed": true,
          "internalType": "address",
          "name": "manufacturer",
          "type": "address"
        }
      ],
      "name": "OrderPlaced",
      "type": "event"
    },
    {
      "anonymous": false,
      "inputs": [
        {
          "indexed": true,
          "internalType": "string",
          "name": "orderId",
          "type": "string"
        },
        {
          "indexed": true,
          "internalType": "address",
          "name": "from",
          "type": "address"
        },
        {
          "indexed": true,
          "internalType": "address",
          "name": "to",
          "type": "address"
        },
        {
          "indexed": false,
          "internalType": "uint256",
          "name": "amount",
          "type": "uint256"
        }
      ],
      "name": "PaymentMade",
      "type": "event"
    },
    {
      "anonymous": false,
      "inputs": [
        {
          "indexed": true,
          "internalType": "address",
          "name": "mro",
          "type": "address"
        },
        {
          "indexed": false,
          "internalType": "string",
          "name": "workOrder",
          "type": "string"
        }
      ],
      "name": "ServiceLogged",
      "type": "event"
    },
    {
      "inputs": [
        {
          "internalType": "string",
          "name": "_name",
          "type": "string"
        },
        {
          "internalType": "string",
          "name": "_materialType",
          "type": "string"
        },
        {
          "internalType": "uint256",
          "name": "_quantity",
          "type": "uint256"
        },
        {
          "internalType": "string",
          "name": "_serialNumber",
          "type": "string"
        },
        {
          "internalType": "string",
          "name": "_batchNumber",
          "type": "string"
        },
        {
          "internalType": "bool",
          "name": "_certified",
          "type": "bool"
        },
        {
          "internalType": "string",
          "name": "_certifiedAuthority",
          "type": "string"
        },
        {
          "internalType": "uint256",
          "name": "_pricePerKg",
          "type": "uint256"
        }
      ],
      "name": "addMaterial",
      "outputs": [],
      "stateMutability": "nonpayable",
      "type": "function"
    },
    {
      "inputs": [
        {
          "internalType": "address",
          "name": "",
          "type": "address"
        },
        {
          "internalType": "uint256",
          "name": "",
          "type": "uint256"
        }
      ],
      "name": "certifications",
      "outputs": [
        {
          "internalType": "string",
          "name": "id",
          "type": "string"
        },
        {
          "internalType": "address",
          "name": "entity",
          "type": "address"
        },
        {
          "internalType": "bool",
          "name": "status",
          "type": "bool"
        },
        {
          "internalType": "uint256",
          "name": "date",
          "type": "uint256"
        }
      ],
      "stateMutability": "view",
      "type": "function"
    },
    {
      "inputs": [
        {
          "internalType": "string",
          "name": "",
          "type": "string"
        }
      ],
      "name": "deliveries",
      "outputs": [
        {
          "internalType": "string",
          "name": "orderId",
          "type": "string"
        },
        {
          "internalType": "string",
          "name": "status",
          "type": "string"
        },
        {
          "internalType": "string",
          "name": "trackingNumber",
          "type": "string"
        },
        {
          "internalType": "uint256",
          "name": "deliveryDate",
          "type": "uint256"
        }
      ],
      "stateMutability": "view",
      "type": "function"
    },
    {
      "inputs": [
        {
          "internalType": "address",
          "name": "_entity",
          "type": "address"
        }
      ],
      "name": "getCertifications",
      "outputs": [
        {
          "components": [
            {
              "internalType": "string",
              "name": "id",
              "type": "string"
            },
            {
              "internalType": "address",
              "name": "entity",
              "type": "address"
            },
            {
              "internalType": "bool",
              "name": "status",
              "type": "bool"
            },
            {
              "internalType": "uint256",
              "name": "date",
              "type": "uint256"
            }
          ],
          "internalType": "struct SupplyChain.Certification[]",
          "name": "",
          "type": "tuple[]"
        }
      ],
      "stateMutability": "view",
      "type": "function"
    },
    {
      "inputs": [
        {
          "internalType": "string",
          "name": "_orderId",
          "type": "string"
        }
      ],
      "name": "getDeliveries",
      "outputs": [
        {
          "components": [
            {
              "internalType": "string",
              "name": "orderId",
              "type": "string"
            },
            {
              "internalType": "string",
              "name": "status",
              "type": "string"
            },
            {
              "internalType": "string",
              "name": "trackingNumber",
              "type": "string"
            },
            {
              "internalType": "uint256",
              "name": "deliveryDate",
              "type": "uint256"
            }
          ],
          "internalType": "struct SupplyChain.Delivery",
          "name": "",
          "type": "tuple"
        }
      ],
      "stateMutability": "view",
      "type": "function"
    },
    {
      "inputs": [
        {
          "internalType": "address",
          "name": "_supplier",
          "type": "address"
        }
      ],
      "name": "getMaterials",
      "outputs": [
        {
          "components": [
            {
              "internalType": "string",
              "name": "name",
              "type": "string"
            },
            {
              "internalType": "string",
              "name": "materialType",
              "type": "string"
            },
            {
              "internalType": "uint256",
              "name": "quantity",
              "type": "uint256"
            },
            {
              "internalType": "string",
              "name": "serialNumber",
              "type": "string"
            },
            {
              "internalType": "string",
              "name": "batchNumber",
              "type": "string"
            },
            {
              "internalType": "bool",
              "name": "certified",
              "type": "bool"
            },
            {
              "internalType": "string",
              "name": "certifiedAuthority",
              "type": "string"
            },
            {
              "internalType": "uint256",
              "name": "pricePerKg",
              "type": "uint256"
            },
            {
              "internalType": "address",
              "name": "supplier",
              "type": "address"
            }
          ],
          "internalType": "struct SupplyChain.Material[]",
          "name": "",
          "type": "tuple[]"
        }
      ],
      "stateMutability": "view",
      "type": "function"
    },
    {
      "inputs": [
        {
          "internalType": "address",
          "name": "_manufacturer",
          "type": "address"
        }
      ],
      "name": "getOrders",
      "outputs": [
        {
          "components": [
            {
              "internalType": "string",
              "name": "id",
              "type": "string"
            },
            {
              "internalType": "string",
              "name": "materialName",
              "type": "string"
            },
            {
              "internalType": "uint256",
              "name": "quantity",
              "type": "uint256"
            },
            {
              "internalType": "address",
              "name": "manufacturer",
              "type": "address"
            },
            {
              "internalType": "string",
              "name": "deliveryAddress",
              "type": "string"
            },
            {
              "internalType": "uint256",
              "name": "price",
              "type": "uint256"
            },
            {
              "internalType": "bool",
              "name": "paid",
              "type": "bool"
            }
          ],
          "internalType": "struct SupplyChain.Order[]",
          "name": "",
          "type": "tuple[]"
        }
      ],
      "stateMutability": "view",
      "type": "function"
    },
    {
      "inputs": [
        {
          "internalType": "address",
          "name": "_mro",
          "type": "address"
        }
      ],
      "name": "getServices",
      "outputs": [
        {
          "components": [
            {
              "internalType": "string",
              "name": "aircraft",
              "type": "string"
            },
            {
              "internalType": "string",
              "name": "serviceType",
              "type": "string"
            },
            {
              "internalType": "string",
              "name": "workOrder",
              "type": "string"
            },
            {
              "internalType": "string",
              "name": "details",
              "type": "string"
            },
            {
              "internalType": "uint256",
              "name": "date",
              "type": "uint256"
            },
            {
              "internalType": "address",
              "name": "mro",
              "type": "address"
            }
          ],
          "internalType": "struct SupplyChain.Service[]",
          "name": "",
          "type": "tuple[]"
        }
      ],
      "stateMutability": "view",
      "type": "function"
    },
    {
      "inputs": [],
      "name": "getTransactions",
      "outputs": [
        {
          "components": [
            {
              "internalType": "string",
              "name": "orderId",
              "type": "string"
            },
            {
              "internalType": "uint256",
              "name": "timestamp",
              "type": "uint256"
            },
            {
              "internalType": "address",
              "name": "from",
              "type": "address"
            },
            {
              "internalType": "address",
              "name": "to",
              "type": "address"
            },
            {
              "internalType": "uint256",
              "name": "amount",
              "type": "uint256"
            }
          ],
          "internalType": "struct SupplyChain.Transaction[]",
          "name": "",
          "type": "tuple[]"
        }
      ],
      "stateMutability": "view",
      "type": "function"
    },
    {
      "inputs": [
        {
          "internalType": "string",
          "name": "_id",
          "type": "string"
        },
        {
          "internalType": "address",
          "name": "_entity",
          "type": "address"
        },
        {
          "internalType": "bool",
          "name": "_status",
          "type": "bool"
        },
        {
          "internalType": "uint256",
          "name": "_date",
          "type": "uint256"
        }
      ],
      "name": "issueCertification",
      "outputs": [],
      "stateMutability": "nonpayable",
      "type": "function"
    },
    {
      "inputs": [
        {
          "internalType": "string",
          "name": "_aircraft",
          "type": "string"
        },
        {
          "internalType": "string",
          "name": "_serviceType",
          "type": "string"
        },
        {
          "internalType": "string",
          "name": "_workOrder",
          "type": "string"
        },
        {
          "internalType": "string",
          "name": "_details",
          "type": "string"
        },
        {
          "internalType": "uint256",
          "name": "_date",
          "type": "uint256"
        }
      ],
      "name": "logService",
      "outputs": [],
      "stateMutability": "nonpayable",
      "type": "function"
    },
    {
      "inputs": [
        {
          "internalType": "string",
          "name": "_orderId",
          "type": "string"
        },
        {
          "internalType": "address",
          "name": "_to",
          "type": "address"
        }
      ],
      "name": "makePayment",
      "outputs": [],
      "stateMutability": "payable",
      "type": "function"
    },
    {
      "inputs": [
        {
          "internalType": "address",
          "name": "",
          "type": "address"
        },
        {
          "internalType": "uint256",
          "name": "",
          "type": "uint256"
        }
      ],
      "name": "materials",
      "outputs": [
        {
          "internalType": "string",
          "name": "name",
          "type": "string"
        },
        {
          "internalType": "string",
          "name": "materialType",
          "type": "string"
        },
        {
          "internalType": "uint256",
          "name": "quantity",
          "type": "uint256"
        },
        {
          "internalType": "string",
          "name": "serialNumber",
          "type": "string"
        },
        {
          "internalType": "string",
          "name": "batchNumber",
          "type": "string"
        },
        {
          "internalType": "bool",
          "name": "certified",
          "type": "bool"
        },
        {
          "internalType": "string",
          "name": "certifiedAuthority",
          "type": "string"
        },
        {
          "internalType": "uint256",
          "name": "pricePerKg",
          "type": "uint256"
        },
        {
          "internalType": "address",
          "name": "supplier",
          "type": "address"
        }
      ],
      "stateMutability": "view",
      "type": "function"
    },
    {
      "inputs": [
        {
          "internalType": "address",
          "name": "",
          "type": "address"
        },
        {
          "internalType": "uint256",
          "name": "",
          "type": "uint256"
        }
      ],
      "name": "orders",
      "outputs": [
        {
          "internalType": "string",
          "name": "id",
          "type": "string"
        },
        {
          "internalType": "string",
          "name": "materialName",
          "type": "string"
        },
        {
          "internalType": "uint256",
          "name": "quantity",
          "type": "uint256"
        },
        {
          "internalType": "address",
          "name": "manufacturer",
          "type": "address"
        },
        {
          "internalType": "string",
          "name": "deliveryAddress",
          "type": "string"
        },
        {
          "internalType": "uint256",
          "name": "price",
          "type": "uint256"
        },
        {
          "internalType": "bool",
          "name": "paid",
          "type": "bool"
        }
      ],
      "stateMutability": "view",
      "type": "function"
    },
    {
      "inputs": [
        {
          "internalType": "string",
          "name": "_id",
          "type": "string"
        },
        {
          "internalType": "string",
          "name": "_materialName",
          "type": "string"
        },
        {
          "internalType": "uint256",
          "name": "_quantity",
          "type": "uint256"
        },
        {
          "internalType": "string",
          "name": "_deliveryAddress",
          "type": "string"
        },
        {
          "internalType": "uint256",
          "name": "_price",
          "type": "uint256"
        },
        {
          "internalType": "address",
          "name": "_supplier",
          "type": "address"
        }
      ],
      "name": "placeOrder",
      "outputs": [],
      "stateMutability": "nonpayable",
      "type": "function"
    },
    {
      "inputs": [
        {
          "internalType": "address",
          "name": "",
          "type": "address"
        },
        {
          "internalType": "uint256",
          "name": "",
          "type": "uint256"
        }
      ],
      "name": "services",
      "outputs": [
        {
          "internalType": "string",
          "name": "aircraft",
          "type": "string"
        },
        {
          "internalType": "string",
          "name": "serviceType",
          "type": "string"
        },
        {
          "internalType": "string",
          "name": "workOrder",
          "type": "string"
        },
        {
          "internalType": "string",
          "name": "details",
          "type": "string"
        },
        {
          "internalType": "uint256",
          "name": "date",
          "type": "uint256"
        },
        {
          "internalType": "address",
          "name": "mro",
          "type": "address"
        }
      ],
      "stateMutability": "view",
      "type": "function"
    },
    {
      "inputs": [
        {
          "internalType": "uint256",
          "name": "",
          "type": "uint256"
        }
      ],
      "name": "transactions",
      "outputs": [
        {
          "internalType": "string",
          "name": "orderId",
          "type": "string"
        },
        {
          "internalType": "uint256",
          "name": "timestamp",
          "type": "uint256"
        },
        {
          "internalType": "address",
          "name": "from",
          "type": "address"
        },
        {
          "internalType": "address",
          "name": "to",
          "type": "address"
        },
        {
          "internalType": "uint256",
          "name": "amount",
          "type": "uint256"
        }
      ],
      "stateMutability": "view",
      "type": "function"
    },
    {
      "inputs": [
        {
          "internalType": "string",
          "name": "_orderId",
          "type": "string"
        },
        {
          "internalType": "string",
          "name": "_status",
          "type": "string"
        },
        {
          "internalType": "string",
          "name": "_trackingNumber",
          "type": "string"
        },
        {
          "internalType": "uint256",
          "name": "_deliveryDate",
          "type": "uint256"
        }
      ],
      "name": "updateDelivery",
      "outputs": [],
      "stateMutability": "nonpayable",
      "type": "function"
    }
  ],
  "bytecode": "0x608060405234801561001057600080fd5b50614333806100206000396000f3fe6080604052600436106101095760003560e01c806383920e9011610095578063b2532a4511610064578063b2532a45146103b9578063bb03df83146103f6578063c134f17e1461041f578063e1ca449f14610461578063f650b9a2146104a157610109565b806383920e90146102ec578063857dd96c1461031757806399c97a06146103335780639ace38c21461037857610109565b806342a4a6cc116100dc57806342a4a6cc146101dd578063677cc2911461020657806376fd572f14610243578063793b8c6d1461026c5780637b89c836146102af57610109565b8063093376fe1461010e5780631c801a071461014b57806329ac5c1f1461017457806338482f021461019d575b600080fd5b34801561011a57600080fd5b5061013560048036038101906101309190612e25565b6104de565b6040516101429190613bb4565b60405180910390f35b34801561015757600080fd5b50610172600480360381019061016d9190613246565b6107b7565b005b34801561018057600080fd5b5061019b60048036038101906101969190612f1f565b6109a0565b005b3480156101a957600080fd5b506101c460048036038101906101bf9190612e4e565b610b25565b6040516101d49493929190613c3c565b60405180910390f35b3480156101e957600080fd5b5061020460048036038101906101ff919061311c565b610c27565b005b34801561021257600080fd5b5061022d60048036038101906102289190612e25565b610e4d565b60405161023a9190613b70565b60405180910390f35b34801561024f57600080fd5b5061026a60048036038101906102659190613071565b610ff8565b005b34801561027857600080fd5b50610293600480360381019061028e9190612e4e565b6110ee565b6040516102a69796959493929190613d5f565b60405180910390f35b3480156102bb57600080fd5b506102d660048036038101906102d19190612e25565b611312565b6040516102e39190613b92565b60405180910390f35b3480156102f857600080fd5b5061030161170f565b60405161030e9190613bf8565b60405180910390f35b610331600480360381019061032c9190612ecb565b6118c0565b005b34801561033f57600080fd5b5061035a60048036038101906103559190612e4e565b611ce9565b60405161036f99989796959493929190613de3565b60405180910390f35b34801561038457600080fd5b5061039f600480360381019061039a9190613317565b612029565b6040516103b0959493929190613e93565b60405180910390f35b3480156103c557600080fd5b506103e060048036038101906103db9190612e25565b612137565b6040516103ed9190613bd6565b60405180910390f35b34801561040257600080fd5b5061041d60048036038101906104189190612f9a565b61247d565b005b34801561042b57600080fd5b5061044660048036038101906104419190612e4e565b612644565b60405161045896959493929190613c88565b60405180910390f35b34801561046d57600080fd5b5061048860048036038101906104839190612e8a565b6128dd565b6040516104989493929190613d05565b60405180910390f35b3480156104ad57600080fd5b506104c860048036038101906104c39190612e8a565b612abb565b6040516104d59190613f0d565b60405180910390f35b6060600160008373ffffffffffffffffffffffffffffffffffffffff1673ffffffffffffffffffffffffffffffffffffffff168152602001908152602001600020805480602002602001604051908101604052809291908181526020016000905b828210156107ac57838290600052602060002090600702016040518060e00160405290816000820180546105729061419f565b80601f016020809104026020016040519081016040528092919081815260200182805461059e9061419f565b80156105eb5780601f106105c0576101008083540402835291602001916105eb565b820191906000526020600020905b8154815290600101906020018083116105ce57829003601f168201915b505050505081526020016001820180546106049061419f565b80601f01602080910402602001604051908101604052809291908181526020018280546106309061419f565b801561067d5780601f106106525761010080835404028352916020019161067d565b820191906000526020600020905b81548152906001019060200180831161066057829003601f168201915b50505050508152602001600282015481526020016003820160009054906101000a900473ffffffffffffffffffffffffffffffffffffffff1673ffffffffffffffffffffffffffffffffffffffff1673ffffffffffffffffffffffffffffffffffffffff1681526020016004820180546106f69061419f565b80601f01602080910402602001604051908101604052809291908181526020018280546107229061419f565b801561076f5780601f106107445761010080835404028352916020019161076f565b820191906000526020600020905b81548152906001019060200180831161075257829003601f168201915b50505050508152602001600582015481526020016006820160009054906101000a900460ff1615151515815250508152602001906001019061053f565b505050509050919050565b600160003373ffffffffffffffffffffffffffffffffffffffff1673ffffffffffffffffffffffffffffffffffffffff1681526020019081526020016000206040518060e001604052808881526020018781526020018681526020013373ffffffffffffffffffffffffffffffffffffffff1681526020018581526020018481526020016000151581525090806001815401808255809150506001900390600052602060002090600702016000909190919091506000820151816000019080519060200190610887929190612cb3565b5060208201518160010190805190602001906108a4929190612cb3565b506040820151816002015560608201518160030160006101000a81548173ffffffffffffffffffffffffffffffffffffffff021916908373ffffffffffffffffffffffffffffffffffffffff1602179055506080820151816004019080519060200190610912929190612cb3565b5060a0820151816005015560c08201518160060160006101000a81548160ff02191690831515021790555050503373ffffffffffffffffffffffffffffffffffffffff16866040516109649190613b42565b60405180910390207f7c8ff7b1e5f17f596efa283f42cf5d33001a44417a92923ea8b2bee7aad0d94260405160405180910390a3505050505050565b600560008473ffffffffffffffffffffffffffffffffffffffff1673ffffffffffffffffffffffffffffffffffffffff16815260200190815260200160002060405180608001604052808681526020018573ffffffffffffffffffffffffffffffffffffffff16815260200184151581526020018381525090806001815401808255809150506001900390600052602060002090600302016000909190919091506000820151816000019080519060200190610a5d929190612cb3565b5060208201518160010160006101000a81548173ffffffffffffffffffffffffffffffffffffffff021916908373ffffffffffffffffffffffffffffffffffffffff16021790555060408201518160010160146101000a81548160ff0219169083151502179055506060820151816002015550508273ffffffffffffffffffffffffffffffffffffffff167f8d8f43b45341bfada2d8e1febd7ba0b23b592c2da405457af497cc2bb650047c85604051610b179190613c1a565b60405180910390a250505050565b60056020528160005260406000208181548110610b4157600080fd5b906000526020600020906003020160009150915050806000018054610b659061419f565b80601f0160208091040260200160405190810160405280929190818152602001828054610b919061419f565b8015610bde5780601f10610bb357610100808354040283529160200191610bde565b820191906000526020600020905b815481529060010190602001808311610bc157829003601f168201915b5050505050908060010160009054906101000a900473ffffffffffffffffffffffffffffffffffffffff16908060010160149054906101000a900460ff16908060020154905084565b6000803373ffffffffffffffffffffffffffffffffffffffff1673ffffffffffffffffffffffffffffffffffffffff1681526020019081526020016000206040518061012001604052808a815260200189815260200188815260200187815260200186815260200185151581526020018481526020018381526020013373ffffffffffffffffffffffffffffffffffffffff1681525090806001815401808255809150506001900390600052602060002090600902016000909190919091506000820151816000019080519060200190610d02929190612cb3565b506020820151816001019080519060200190610d1f929190612cb3565b50604082015181600201556060820151816003019080519060200190610d46929190612cb3565b506080820151816004019080519060200190610d63929190612cb3565b5060a08201518160050160006101000a81548160ff02191690831515021790555060c0820151816006019080519060200190610da0929190612cb3565b5060e082015181600701556101008201518160080160006101000a81548173ffffffffffffffffffffffffffffffffffffffff021916908373ffffffffffffffffffffffffffffffffffffffff16021790555050503373ffffffffffffffffffffffffffffffffffffffff167f0808006a791d5cad7f19f27e66b6d2a0d581f8ec26f6cb603d51af571196d44886604051610e3b9190613c1a565b60405180910390a25050505050505050565b6060600560008373ffffffffffffffffffffffffffffffffffffffff1673ffffffffffffffffffffffffffffffffffffffff168152602001908152602001600020805480602002602001604051908101604052809291908181526020016000905b82821015610fed5783829060005260206000209060030201604051806080016040529081600082018054610ee19061419f565b80601f0160208091040260200160405190810160405280929190818152602001828054610f0d9061419f565b8015610f5a5780601f10610f2f57610100808354040283529160200191610f5a565b820191906000526020600020905b815481529060010190602001808311610f3d57829003601f168201915b505050505081526020016001820160009054906101000a900473ffffffffffffffffffffffffffffffffffffffff1673ffffffffffffffffffffffffffffffffffffffff1673ffffffffffffffffffffffffffffffffffffffff1681526020016001820160149054906101000a900460ff1615151515815260200160028201548152505081526020019060010190610eae565b505050509050919050565b6040518060800160405280858152602001848152602001838152602001828152506002856040516110299190613b42565b90815260200160405180910390206000820151816000019080519060200190611053929190612cb3565b506020820151816001019080519060200190611070929190612cb3565b50604082015181600201908051906020019061108d929190612cb3565b5060608201518160030155905050836040516110a99190613b42565b60405180910390207fe181c6c5b73b7019477499ab7fcfe0f94cc6a5b23d6d87d61bd07eef7fc2f61e846040516110e09190613c1a565b60405180910390a250505050565b6001602052816000526040600020818154811061110a57600080fd5b90600052602060002090600702016000915091505080600001805461112e9061419f565b80601f016020809104026020016040519081016040528092919081815260200182805461115a9061419f565b80156111a75780601f1061117c576101008083540402835291602001916111a7565b820191906000526020600020905b81548152906001019060200180831161118a57829003601f168201915b5050505050908060010180546111bc9061419f565b80601f01602080910402602001604051908101604052809291908181526020018280546111e89061419f565b80156112355780601f1061120a57610100808354040283529160200191611235565b820191906000526020600020905b81548152906001019060200180831161121857829003601f168201915b5050505050908060020154908060030160009054906101000a900473ffffffffffffffffffffffffffffffffffffffff16908060040180546112769061419f565b80601f01602080910402602001604051908101604052809291908181526020018280546112a29061419f565b80156112ef5780601f106112c4576101008083540402835291602001916112ef565b820191906000526020600020905b8154815290600101906020018083116112d257829003601f168201915b5050505050908060050154908060060160009054906101000a900460ff16905087565b60606000808373ffffffffffffffffffffffffffffffffffffffff1673ffffffffffffffffffffffffffffffffffffffff168152602001908152602001600020805480602002602001604051908101604052809291908181526020016000905b828210156117045783829060005260206000209060090201604051806101200160405290816000820180546113a69061419f565b80601f01602080910402602001604051908101604052809291908181526020018280546113d29061419f565b801561141f5780601f106113f45761010080835404028352916020019161141f565b820191906000526020600020905b81548152906001019060200180831161140257829003601f168201915b505050505081526020016001820180546114389061419f565b80601f01602080910402602001604051908101604052809291908181526020018280546114649061419f565b80156114b15780601f10611486576101008083540402835291602001916114b1565b820191906000526020600020905b81548152906001019060200180831161149457829003601f168201915b50505050508152602001600282015481526020016003820180546114d49061419f565b80601f01602080910402602001604051908101604052809291908181526020018280546115009061419f565b801561154d5780601f106115225761010080835404028352916020019161154d565b820191906000526020600020905b81548152906001019060200180831161153057829003601f168201915b505050505081526020016004820180546115669061419f565b80601f01602080910402602001604051908101604052809291908181526020018280546115929061419f565b80156115df5780601f106115b4576101008083540402835291602001916115df565b820191906000526020600020905b8154815290600101906020018083116115c257829003601f168201915b505050505081526020016005820160009054906101000a900460ff161515151581526020016006820180546116139061419f565b80601f016020809104026020016040519081016040528092919081815260200182805461163f9061419f565b801561168c5780601f106116615761010080835404028352916020019161168c565b820191906000526020600020905b81548152906001019060200180831161166f57829003601f168201915b50505050508152602001600782015481526020016008820160009054906101000a900473ffffffffffffffffffffffffffffffffffffffff1673ffffffffffffffffffffffffffffffffffffffff1673ffffffffffffffffffffffffffffffffffffffff168152505081526020019060010190611372565b505050509050919050565b60606003805480602002602001604051908101604052809291908181526020016000905b828210156118b757838290600052602060002090600502016040518060a00160405290816000820180546117669061419f565b80601f01602080910402602001604051908101604052809291908181526020018280546117929061419f565b80156117df5780601f106117b4576101008083540402835291602001916117df565b820191906000526020600020905b8154815290600101906020018083116117c257829003601f168201915b50505050508152602001600182015481526020016002820160009054906101000a900473ffffffffffffffffffffffffffffffffffffffff1673ffffffffffffffffffffffffffffffffffffffff1673ffffffffffffffffffffffffffffffffffffffff1681526020016003820160009054906101000a900473ffffffffffffffffffffffffffffffffffffffff1673ffffffffffffffffffffffffffffffffffffffff1673ffffffffffffffffffffffffffffffffffffffff16815260200160048201548152505081526020019060010190611733565b50505050905090565b60003411611903576040517f08c379a00000000000000000000000000000000000000000000000000000000081526004016118fa90613eed565b60405180910390fd5b8073ffffffffffffffffffffffffffffffffffffffff166108fc349081150290604051600060405180830381858888f19350505050158015611949573d6000803e3d6000fd5b5060005b600160003373ffffffffffffffffffffffffffffffffffffffff1673ffffffffffffffffffffffffffffffffffffffff16815260200190815260200160002080549050811015611b2a57826040516020016119a89190613b42565b60405160208183030381529060405280519060200120600160003373ffffffffffffffffffffffffffffffffffffffff1673ffffffffffffffffffffffffffffffffffffffff1681526020019081526020016000208281548110611a35577f4e487b7100000000000000000000000000000000000000000000000000000000600052603260045260246000fd5b9060005260206000209060070201600001604051602001611a569190613b59565b604051602081830303815290604052805190602001201415611b175760018060003373ffffffffffffffffffffffffffffffffffffffff1673ffffffffffffffffffffffffffffffffffffffff1681526020019081526020016000208281548110611aea577f4e487b7100000000000000000000000000000000000000000000000000000000600052603260045260246000fd5b906000526020600020906007020160060160006101000a81548160ff021916908315150217905550611b2a565b8080611b22906141d1565b91505061194d565b5060036040518060a001604052808481526020014281526020013373ffffffffffffffffffffffffffffffffffffffff1681526020018373ffffffffffffffffffffffffffffffffffffffff1681526020013481525090806001815401808255809150506001900390600052602060002090600502016000909190919091506000820151816000019080519060200190611bc5929190612cb3565b506020820151816001015560408201518160020160006101000a81548173ffffffffffffffffffffffffffffffffffffffff021916908373ffffffffffffffffffffffffffffffffffffffff16021790555060608201518160030160006101000a81548173ffffffffffffffffffffffffffffffffffffffff021916908373ffffffffffffffffffffffffffffffffffffffff1602179055506080820151816004015550508073ffffffffffffffffffffffffffffffffffffffff163373ffffffffffffffffffffffffffffffffffffffff1683604051611ca69190613b42565b60405180910390207f8747f757e88901b58d00d8f24ecf641b88a073fb206fc1ec91e91c7a3b116fe034604051611cdd9190613f2f565b60405180910390a45050565b60006020528160005260406000208181548110611d0557600080fd5b906000526020600020906009020160009150915050806000018054611d299061419f565b80601f0160208091040260200160405190810160405280929190818152602001828054611d559061419f565b8015611da25780601f10611d7757610100808354040283529160200191611da2565b820191906000526020600020905b815481529060010190602001808311611d8557829003601f168201915b505050505090806001018054611db79061419f565b80601f0160208091040260200160405190810160405280929190818152602001828054611de39061419f565b8015611e305780601f10611e0557610100808354040283529160200191611e30565b820191906000526020600020905b815481529060010190602001808311611e1357829003601f168201915b505050505090806002015490806003018054611e4b9061419f565b80601f0160208091040260200160405190810160405280929190818152602001828054611e779061419f565b8015611ec45780601f10611e9957610100808354040283529160200191611ec4565b820191906000526020600020905b815481529060010190602001808311611ea757829003601f168201915b505050505090806004018054611ed99061419f565b80601f0160208091040260200160405190810160405280929190818152602001828054611f059061419f565b8015611f525780601f10611f2757610100808354040283529160200191611f52565b820191906000526020600020905b815481529060010190602001808311611f3557829003601f168201915b5050505050908060050160009054906101000a900460ff1690806006018054611f7a9061419f565b80601f0160208091040260200160405190810160405280929190818152602001828054611fa69061419f565b8015611ff35780601f10611fc857610100808354040283529160200191611ff3565b820191906000526020600020905b815481529060010190602001808311611fd657829003601f168201915b5050505050908060070154908060080160009054906101000a900473ffffffffffffffffffffffffffffffffffffffff16905089565b6003818154811061203957600080fd5b906000526020600020906005020160009150905080600001805461205c9061419f565b80601f01602080910402602001604051908101604052809291908181526020018280546120889061419f565b80156120d55780601f106120aa576101008083540402835291602001916120d5565b820191906000526020600020905b8154815290600101906020018083116120b857829003601f168201915b5050505050908060010154908060020160009054906101000a900473ffffffffffffffffffffffffffffffffffffffff16908060030160009054906101000a900473ffffffffffffffffffffffffffffffffffffffff16908060040154905085565b6060600460008373ffffffffffffffffffffffffffffffffffffffff1673ffffffffffffffffffffffffffffffffffffffff168152602001908152602001600020805480602002602001604051908101604052809291908181526020016000905b8282101561247257838290600052602060002090600602016040518060c00160405290816000820180546121cb9061419f565b80601f01602080910402602001604051908101604052809291908181526020018280546121f79061419f565b80156122445780601f1061221957610100808354040283529160200191612244565b820191906000526020600020905b81548152906001019060200180831161222757829003601f168201915b5050505050815260200160018201805461225d9061419f565b80601f01602080910402602001604051908101604052809291908181526020018280546122899061419f565b80156122d65780601f106122ab576101008083540402835291602001916122d6565b820191906000526020600020905b8154815290600101906020018083116122b957829003601f168201915b505050505081526020016002820180546122ef9061419f565b80601f016020809104026020016040519081016040528092919081815260200182805461231b9061419f565b80156123685780601f1061233d57610100808354040283529160200191612368565b820191906000526020600020905b81548152906001019060200180831161234b57829003601f168201915b505050505081526020016003820180546123819061419f565b80601f01602080910402602001604051908101604052809291908181526020018280546123ad9061419f565b80156123fa5780601f106123cf576101008083540402835291602001916123fa565b820191906000526020600020905b8154815290600101906020018083116123dd57829003601f168201915b50505050508152602001600482015481526020016005820160009054906101000a900473ffffffffffffffffffffffffffffffffffffffff1673ffffffffffffffffffffffffffffffffffffffff1673ffffffffffffffffffffffffffffffffffffffff168152505081526020019060010190612198565b505050509050919050565b600460003373ffffffffffffffffffffffffffffffffffffffff1673ffffffffffffffffffffffffffffffffffffffff1681526020019081526020016000206040518060c001604052808781526020018681526020018581526020018481526020018381526020013373ffffffffffffffffffffffffffffffffffffffff1681525090806001815401808255809150506001900390600052602060002090600602016000909190919091506000820151816000019080519060200190612544929190612cb3565b506020820151816001019080519060200190612561929190612cb3565b50604082015181600201908051906020019061257e929190612cb3565b50606082015181600301908051906020019061259b929190612cb3565b506080820151816004015560a08201518160050160006101000a81548173ffffffffffffffffffffffffffffffffffffffff021916908373ffffffffffffffffffffffffffffffffffffffff16021790555050503373ffffffffffffffffffffffffffffffffffffffff167f39711b14cb19fe5359e4771553742a74eef50af7c6e99903332feaad8f028113846040516126359190613c1a565b60405180910390a25050505050565b6004602052816000526040600020818154811061266057600080fd5b9060005260206000209060060201600091509150508060000180546126849061419f565b80601f01602080910402602001604051908101604052809291908181526020018280546126b09061419f565b80156126fd5780601f106126d2576101008083540402835291602001916126fd565b820191906000526020600020905b8154815290600101906020018083116126e057829003601f168201915b5050505050908060010180546127129061419f565b80601f016020809104026020016040519081016040528092919081815260200182805461273e9061419f565b801561278b5780601f106127605761010080835404028352916020019161278b565b820191906000526020600020905b81548152906001019060200180831161276e57829003601f168201915b5050505050908060020180546127a09061419f565b80601f01602080910402602001604051908101604052809291908181526020018280546127cc9061419f565b80156128195780601f106127ee57610100808354040283529160200191612819565b820191906000526020600020905b8154815290600101906020018083116127fc57829003601f168201915b50505050509080600301805461282e9061419f565b80601f016020809104026020016040519081016040528092919081815260200182805461285a9061419f565b80156128a75780601f1061287c576101008083540402835291602001916128a7565b820191906000526020600020905b81548152906001019060200180831161288a57829003601f168201915b5050505050908060040154908060050160009054906101000a900473ffffffffffffffffffffffffffffffffffffffff16905086565b6002818051602081018201805184825260208301602085012081835280955050505050506000915090508060000180546129169061419f565b80601f01602080910402602001604051908101604052809291908181526020018280546129429061419f565b801561298f5780601f106129645761010080835404028352916020019161298f565b820191906000526020600020905b81548152906001019060200180831161297257829003601f168201915b5050505050908060010180546129a49061419f565b80601f01602080910402602001604051908101604052809291908181526020018280546129d09061419f565b8015612a1d5780601f106129f257610100808354040283529160200191612a1d565b820191906000526020600020905b815481529060010190602001808311612a0057829003601f168201915b505050505090806002018054612a329061419f565b80601f0160208091040260200160405190810160405280929190818152602001828054612a5e9061419f565b8015612aab5780601f10612a8057610100808354040283529160200191612aab565b820191906000526020600020905b815481529060010190602001808311612a8e57829003601f168201915b5050505050908060030154905084565b612ac3612d39565b600282604051612ad39190613b42565b9081526020016040518091039020604051806080016040529081600082018054612afc9061419f565b80601f0160208091040260200160405190810160405280929190818152602001828054612b289061419f565b8015612b755780601f10612b4a57610100808354040283529160200191612b75565b820191906000526020600020905b815481529060010190602001808311612b5857829003601f168201915b50505050508152602001600182018054612b8e9061419f565b80601f0160208091040260200160405190810160405280929190818152602001828054612bba9061419f565b8015612c075780601f10612bdc57610100808354040283529160200191612c07565b820191906000526020600020905b815481529060010190602001808311612bea57829003601f168201915b50505050508152602001600282018054612c209061419f565b80601f0160208091040260200160405190810160405280929190818152602001828054612c4c9061419f565b8015612c995780601f10612c6e57610100808354040283529160200191612c99565b820191906000526020600020905b815481529060010190602001808311612c7c57829003601f168201915b505050505081526020016003820154815250509050919050565b828054612cbf9061419f565b90600052602060002090601f016020900481019282612ce15760008555612d28565b82601f10612cfa57805160ff1916838001178555612d28565b82800160010185558215612d28579182015b82811115612d27578251825591602001919060010190612d0c565b5b509050612d359190612d61565b5090565b6040518060800160405280606081526020016060815260200160608152602001600081525090565b5b80821115612d7a576000816000905550600101612d62565b5090565b6000612d91612d8c84613f7b565b613f4a565b905082815260208101848484011115612da957600080fd5b612db484828561415d565b509392505050565b600081359050612dcb816142b8565b92915050565b600081359050612de0816142cf565b92915050565b600082601f830112612df757600080fd5b8135612e07848260208601612d7e565b91505092915050565b600081359050612e1f816142e6565b92915050565b600060208284031215612e3757600080fd5b6000612e4584828501612dbc565b91505092915050565b60008060408385031215612e6157600080fd5b6000612e6f85828601612dbc565b9250506020612e8085828601612e10565b9150509250929050565b600060208284031215612e9c57600080fd5b600082013567ffffffffffffffff811115612eb657600080fd5b612ec284828501612de6565b91505092915050565b60008060408385031215612ede57600080fd5b600083013567ffffffffffffffff811115612ef857600080fd5b612f0485828601612de6565b9250506020612f1585828601612dbc565b9150509250929050565b60008060008060808587031215612f3557600080fd5b600085013567ffffffffffffffff811115612f4f57600080fd5b612f5b87828801612de6565b9450506020612f6c87828801612dbc565b9350506040612f7d87828801612dd1565b9250506060612f8e87828801612e10565b91505092959194509250565b600080600080600060a08688031215612fb257600080fd5b600086013567ffffffffffffffff811115612fcc57600080fd5b612fd888828901612de6565b955050602086013567ffffffffffffffff811115612ff557600080fd5b61300188828901612de6565b945050604086013567ffffffffffffffff81111561301e57600080fd5b61302a88828901612de6565b935050606086013567ffffffffffffffff81111561304757600080fd5b61305388828901612de6565b925050608061306488828901612e10565b9150509295509295909350565b6000806000806080858703121561308757600080fd5b600085013567ffffffffffffffff8111156130a157600080fd5b6130ad87828801612de6565b945050602085013567ffffffffffffffff8111156130ca57600080fd5b6130d687828801612de6565b935050604085013567ffffffffffffffff8111156130f357600080fd5b6130ff87828801612de6565b925050606061311087828801612e10565b91505092959194509250565b600080600080600080600080610100898b03121561313957600080fd5b600089013567ffffffffffffffff81111561315357600080fd5b61315f8b828c01612de6565b985050602089013567ffffffffffffffff81111561317c57600080fd5b6131888b828c01612de6565b97505060406131998b828c01612e10565b965050606089013567ffffffffffffffff8111156131b657600080fd5b6131c28b828c01612de6565b955050608089013567ffffffffffffffff8111156131df57600080fd5b6131eb8b828c01612de6565b94505060a06131fc8b828c01612dd1565b93505060c089013567ffffffffffffffff81111561321957600080fd5b6132258b828c01612de6565b92505060e06132368b828c01612e10565b9150509295985092959890939650565b60008060008060008060c0878903121561325f57600080fd5b600087013567ffffffffffffffff81111561327957600080fd5b61328589828a01612de6565b965050602087013567ffffffffffffffff8111156132a257600080fd5b6132ae89828a01612de6565b95505060406132bf89828a01612e10565b945050606087013567ffffffffffffffff8111156132dc57600080fd5b6132e889828a01612de6565b93505060806132f989828a01612e10565b92505060a061330a89828a01612dbc565b9150509295509295509295565b60006020828403121561332957600080fd5b600061333784828501612e10565b91505092915050565b600061334c83836137b1565b905092915050565b60006133608383613885565b905092915050565b60006133748383613966565b905092915050565b60006133888383613a10565b905092915050565b600061339c8383613aae565b905092915050565b6133ad81614115565b82525050565b6133bc81614115565b82525050565b60006133cd82614010565b6133d78185614093565b9350836020820285016133e985613fab565b8060005b8581101561342557848403895281516134068582613340565b945061341183614052565b925060208a019950506001810190506133ed565b50829750879550505050505092915050565b60006134428261401b565b61344c81856140a4565b93508360208202850161345e85613fbb565b8060005b8581101561349a578484038952815161347b8582613354565b94506134868361405f565b925060208a01995050600181019050613462565b50829750879550505050505092915050565b60006134b782614026565b6134c181856140b5565b9350836020820285016134d385613fcb565b8060005b8581101561350f57848403895281516134f08582613368565b94506134fb8361406c565b925060208a019950506001810190506134d7565b50829750879550505050505092915050565b600061352c82614031565b61353681856140c6565b93508360208202850161354885613fdb565b8060005b858110156135845784840389528151613565858261337c565b945061357083614079565b925060208a0199505060018101905061354c565b50829750879550505050505092915050565b60006135a18261403c565b6135ab81856140d7565b9350836020820285016135bd85613feb565b8060005b858110156135f957848403895281516135da8582613390565b94506135e583614086565b925060208a019950506001810190506135c1565b50829750879550505050505092915050565b61361481614127565b82525050565b61362381614127565b82525050565b600061363482614047565b61363e81856140e8565b935061364e81856020860161416c565b613657816142a7565b840191505092915050565b600061366d82614047565b61367781856140f9565b935061368781856020860161416c565b613690816142a7565b840191505092915050565b60006136a682614047565b6136b0818561410a565b93506136c081856020860161416c565b80840191505092915050565b600081546136d98161419f565b6136e3818661410a565b945060018216600081146136fe576001811461370f57613742565b60ff19831686528186019350613742565b61371885613ffb565b60005b8381101561373a5781548189015260018201915060208101905061371b565b838801955050505b50505092915050565b60006137586025836140f9565b91507f5061796d656e7420616d6f756e74206d7573742062652067726561746572207460008301527f68616e20300000000000000000000000000000000000000000000000000000006020830152604082019050919050565b600060808301600083015184820360008601526137ce8282613629565b91505060208301516137e360208601826133a4565b5060408301516137f6604086018261360b565b5060608301516138096060860182613b24565b508091505092915050565b600060808301600083015184820360008601526138318282613629565b9150506020830151848203602086015261384b8282613629565b915050604083015184820360408601526138658282613629565b915050606083015161387a6060860182613b24565b508091505092915050565b60006101208301600083015184820360008601526138a38282613629565b915050602083015184820360208601526138bd8282613629565b91505060408301516138d26040860182613b24565b50606083015184820360608601526138ea8282613629565b915050608083015184820360808601526139048282613629565b91505060a083015161391960a086018261360b565b5060c083015184820360c08601526139318282613629565b91505060e083015161394660e0860182613b24565b5061010083015161395b6101008601826133a4565b508091505092915050565b600060e08301600083015184820360008601526139838282613629565b9150506020830151848203602086015261399d8282613629565b91505060408301516139b26040860182613b24565b5060608301516139c560608601826133a4565b50608083015184820360808601526139dd8282613629565b91505060a08301516139f260a0860182613b24565b5060c0830151613a0560c086018261360b565b508091505092915050565b600060c0830160008301518482036000860152613a2d8282613629565b91505060208301518482036020860152613a478282613629565b91505060408301518482036040860152613a618282613629565b91505060608301518482036060860152613a7b8282613629565b9150506080830151613a906080860182613b24565b5060a0830151613aa360a08601826133a4565b508091505092915050565b600060a0830160008301518482036000860152613acb8282613629565b9150506020830151613ae06020860182613b24565b506040830151613af360408601826133a4565b506060830151613b0660608601826133a4565b506080830151613b196080860182613b24565b508091505092915050565b613b2d81614153565b82525050565b613b3c81614153565b82525050565b6000613b4e828461369b565b915081905092915050565b6000613b6582846136cc565b915081905092915050565b60006020820190508181036000830152613b8a81846133c2565b905092915050565b60006020820190508181036000830152613bac8184613437565b905092915050565b60006020820190508181036000830152613bce81846134ac565b905092915050565b60006020820190508181036000830152613bf08184613521565b905092915050565b60006020820190508181036000830152613c128184613596565b905092915050565b60006020820190508181036000830152613c348184613662565b905092915050565b60006080820190508181036000830152613c568187613662565b9050613c6560208301866133b3565b613c72604083018561361a565b613c7f6060830184613b33565b95945050505050565b600060c0820190508181036000830152613ca28189613662565b90508181036020830152613cb68188613662565b90508181036040830152613cca8187613662565b90508181036060830152613cde8186613662565b9050613ced6080830185613b33565b613cfa60a08301846133b3565b979650505050505050565b60006080820190508181036000830152613d1f8187613662565b90508181036020830152613d338186613662565b90508181036040830152613d478185613662565b9050613d566060830184613b33565b95945050505050565b600060e0820190508181036000830152613d79818a613662565b90508181036020830152613d8d8189613662565b9050613d9c6040830188613b33565b613da960608301876133b3565b8181036080830152613dbb8186613662565b9050613dca60a0830185613b33565b613dd760c083018461361a565b98975050505050505050565b6000610120820190508181036000830152613dfe818c613662565b90508181036020830152613e12818b613662565b9050613e21604083018a613b33565b8181036060830152613e338189613662565b90508181036080830152613e478188613662565b9050613e5660a083018761361a565b81810360c0830152613e688186613662565b9050613e7760e0830185613b33565b613e856101008301846133b3565b9a9950505050505050505050565b600060a0820190508181036000830152613ead8188613662565b9050613ebc6020830187613b33565b613ec960408301866133b3565b613ed660608301856133b3565b613ee36080830184613b33565b9695505050505050565b60006020820190508181036000830152613f068161374b565b9050919050565b60006020820190508181036000830152613f278184613814565b905092915050565b6000602082019050613f446000830184613b33565b92915050565b6000604051905081810181811067ffffffffffffffff82111715613f7157613f70614278565b5b8060405250919050565b600067ffffffffffffffff821115613f9657613f95614278565b5b601f19601f8301169050602081019050919050565b6000819050602082019050919050565b6000819050602082019050919050565b6000819050602082019050919050565b6000819050602082019050919050565b6000819050602082019050919050565b60008190508160005260206000209050919050565b600081519050919050565b600081519050919050565b600081519050919050565b600081519050919050565b600081519050919050565b600081519050919050565b6000602082019050919050565b6000602082019050919050565b6000602082019050919050565b6000602082019050919050565b6000602082019050919050565b600082825260208201905092915050565b600082825260208201905092915050565b600082825260208201905092915050565b600082825260208201905092915050565b600082825260208201905092915050565b600082825260208201905092915050565b600082825260208201905092915050565b600081905092915050565b600061412082614133565b9050919050565b60008115159050919050565b600073ffffffffffffffffffffffffffffffffffffffff82169050919050565b6000819050919050565b82818337600083830152505050565b60005b8381101561418a57808201518184015260208101905061416f565b83811115614199576000848401525b50505050565b600060028204905060018216806141b757607f821691505b602082108114156141cb576141ca614249565b5b50919050565b60006141dc82614153565b91507fffffffffffffffffffffffffffffffffffffffffffffffffffffffffffffffff82141561420f5761420e61421a565b5b600182019050919050565b7f4e487b7100000000000000000000000000000000000000000000000000000000600052601160045260246000fd5b7f4e487b7100000000000000000000000000000000000000000000000000000000600052602260045260246000fd5b7f4e487b7100000000000000000000000000000000000000000000000000000000600052604160045260246000fd5b6000601f19601f8301169050919050565b6142c181614115565b81146142cc57600080fd5b50565b6142d881614127565b81146142e357600080fd5b50565b6142ef81614153565b81146142fa57600080fd5b5056fea2646970667358221220f8e99937b2f88a7d9e758606fcc3b2a2a640c2cd2e20d4571b85ed4ac1153acb64736f6c63430008000033",
  "linkReferences": {},
  "deployedLinkReferences": {}
}